:020000040800F2
:10000000C0220020AD48000801470008034700084F
:1000100005470008074700080947000800000000DE
:100020000000000000000000000000000B47000876
:100030000D470008000000000F47000811470008A6
:10004000D1480008D5480008D9480008DD48000814
:10005000E1480008E5480008E9480008ED480008C4
:10006000F1480008F5480008F9480008234700084F
:10007000FD48000801490008054900080949000831
:10008000294700082F4700080D49000811490008BA
:100090003547000815490008194900081D4900089E
:1000A0002149000825490008294900082D49000870
:1000B00031490008354900083B470008414700081E
:1000C00047470008394900083D49000841490008F0
:1000D000454900084D470008494900084D490008B6
:1000E0005149000855490008594900085D49000870
:1000F0006149000865490008694900086D49000820
:100100007149000875490008794900087D490008CF
:100110008149000885490008894900088D4900087F
:100120009149000895490008994900089D4900082F
:10013000F8B5040001D10120F2BD04F13C05687856
:1001400020B900212970204600F082FD00F054F80B
:1001500001F030F80146DFF8B000DFF8B030B1FB55
:10016000F0F2206842606068984206D34FF49670BF
:1001700042434FF47A76B2FBF6F22768521C3A6299
:1001800066689E4208D27600B1FBF6F0C0F30B0120
:10019000042913D2042011E0A06820B906EB46061A
:1001A000B1FBF6F005E019225643B1FBF6F040F43E
:1001B000804001050CBF012040F400402168C86167
:1001C000E269206A0243206802602169E068014315
:1001D000206881606169A06901432068C16020686E
:1001E000016841F001010160002068602020687012
:1001F00000202063A870F2BD242068702068016888
:10020000490849000160704740420F00A186010083
:10021000DFF80008E06270472DE9F84F044604F16A
:100220003D022168DFF87489D1F818904E694F6853
:100230005078DFF87C55DFF868A9DFF874B9DFF88B
:1002400074C9102818BF40286ED116F0011F04F1A0
:1002500044032ED0B8053ED55078402809D1D8683F
:1002600018B91A6802F0FE0221E0186840F0010097
:1002700026E02069B0F5804F0BD11278212A03D1F6
:10028000186800F0FE001CE01A6842F00102D2B2C9
:100290000DE0D86820B900F0C6F842F0F00206E0A0
:1002A000D868012817D100F0BEF842F0F1020A61C7
:1002B00011E0DFF80409064205D0BA050BD518682D
:1002C000C0B2086107E016EA0C0F04D0B80544BFBD
:1002D000204600F07FFA19EA0B0F12D016EA0A0F37
:1002E00007D0780505D52E4203D12046BDE8F24F50
:1002F0000BE12E4245D0B8055CD52046BDE8F24F53
:1003000067E116EA080F07D0780505D52E4203D11C
:100310002046BDE8F24FA7E12E4232D0B80549D5BC
:100320002046BDE8F24FF9E116EA0C0F12D0B805ED
:100330001AD58A6989690020530758BF01200A0627
:100340000146204654BFE268A269BDE8F84F92B268
:1003500000F061BFDFF86408064205D0BB0503D595
:100360002046BDE8F24FE9E219EA0B0F2CD016EA5D
:100370000A0F1CD078051AD52E4218D11378608D3B
:1003800000284ED0606A451C65620078086100F064
:1003900050F808BF292B44D100F051F821202063E8
:1003A000282010702046BDE8F24F00F035BF2E42E5
:1003B00037D0B80535D5608D002832D0606A421C30
:1003C00062620078086129E016EA080F1BD0780500
:1003D00019D52E4217D11378608D10B3606A451C71
:1003E00065620969017000F024F808BF2A2B18D152
:1003F00000F025F822202063282010702046BDE858
:10040000F24F00F00ABF2E420BD0B80509D5608D1F
:1004100038B1606A421C626209690170608D411ED8
:100420006185BDE8F18F1A681204D20D02F0060250
:100430007047608D411E6185608D0028704720687F
:10044000416821F4806141607047F8B50446DFF8E7
:1004500070172068456946680D420DD0F20518D521
:10046000216C41F0010121646FF4807242612068C7
:10047000016841F40041016015F4813F09D0F005A5
:100480003CD5206C40F0020020646FF400712068BD
:10049000416115F4823F24D0F0052FD504F13D00D1
:1004A0004778618D0278236B202F08BF00290BD17C
:1004B000212A18BF292A03D0282A08BF212B03D1BB
:1004C000204600F0A9FA0CE0216C41F004012164FF
:1004D0004078102801D100F065FB6FF4806022683D
:1004E000506115F4843F09D0F00507D5206C40F029
:1004F000080020646FF4006122685161206C18B11B
:100500002046BDE8F240C3E2F1BD38B500F13D023E
:1005100013785478C56A018D002908BF212B16D1A4
:10052000042D1EBF082DDFF89C168D4202D000F06E
:100530007EF809E000F087F804D10023537000F042
:100540006DFE44E00021517000F069FE3FE0212B78
:1005500003D0402C08BF222B39D1418D11B900F0B6
:10056000D1F834E0517840292FD100F1480399683F
:1005700089B900685968012905D11A68D2B20261A7
:100580009868801C05E019680904090E01619868E3
:10059000401C98601BE09968012907D11A6800681F
:1005A000D2B202619968491C996010E099680229E9
:1005B0000DD11378222B05D10068016841F48071B8
:1005C000016004E01278212A01D100F026F8002011
:1005D00032BD10B5C36A00F13D021478212C1AD146
:1005E000418D11B100F019F815E0042B1EBF082B46
:1005F000DFF8D0158B4202D000F019F809E000F0C6
:1006000022F804D10023537000F008FE03E000211B
:10061000517000F004FE002010BD416A4A1C426285
:10062000026809781161418D4A1E42857047016850
:100630004B6823F4E0634B6011210163002151708A
:1006400020211170704701684B6823F4E0634B6010
:1006500001680B6843F400730B60002101632021E3
:10066000117051784029704710B500F13D010A78AA
:10067000222A45D1428D042A02D300F09BF83FE0A4
:10068000022A18BF032A13D10168C26A0B68022A22
:1006900008D023F480630B6001680A6842F40062AA
:1006A0000A6002E043F480630B6000F02BF827E05F
:1006B0000268C36A022B04D0146824F480641460B6
:1006C00003E0136843F48063136000F021F8426A8A
:1006D000531C436203681C691470428D531E43858A
:1006E000002220230B7002634A78402A04D10023A1
:1006F0004B7000F095FD03E000224A7000F091FD80
:10070000002010BD0068416821F48061416070479D
:100710000268536823F4E0635360704780B5C16A90
:10072000438DDFF8A024032B07D104291CBF08291F
:10073000914237D100F0F3F834E0438D022B31D1F0
:1007400004291CBF082991420ED00268022904D056
:10075000116821F48061116003E0136843F4806341
:10076000136000F031F806E000F02EF801680A6826
:1007700042F400720A6000F01DF800F01BF800F16E
:100780003D0120220A70002202634A78402A04D1E7
:1007900000234B7000F044FD06E000224A7000F098
:1007A00040FD01E000F006F8002002BD000000005E
:1007B00004000100416A4A1C4262026813690B701E
:1007C000418D4A1E4285704701684A6822F4407292
:1007D0004A60704738B500F13D014A78C36A046B3E
:1007E0000D78222D40F08580016D002908BF402A38
:1007F00002D1002200927EE0016D002904BF02694F
:10080000B2F5404F07D100F081F842F480720A60DF
:10081000016D491C6BE0418D11B9002200922BE063
:10082000418D012933D1DFF89C2393420DD100F093
:1008300076F801684A68130510D4002200924B69CB
:1008400000938A690092009B1CE0042B1CBF082BBC
:10085000122C0DD00168C26A022A04D00B6823F45E
:1008600080630B6040E00A6842F480620A603BE00B
:1008700000F055F80021009101684A6900928B69E7
:100880000093009A0A6842F400720A602EE0016840
:10089000428D022A1CD1C36A022B0AD00A6842F494
:1008A00000620A60002100F031F822F480620A60E0
:1008B00005E00B6843F480630B6000F036F80168D4
:1008C0004A68130512D54A6842F480524A600DE026
:1008D0000B6843F480630B6001684A68130503D515
:1008E0004A6842F480524A6000F01FF80021016516
:1008F00004E000210091006800F002F8002032BD01
:1009000041690091806900900099704700910168E9
:100910004A6900928B690093009A0A6870470168DF
:100920000A6822F480620A60704700210091016821
:100930004A69009289690091009A70477CB500F17C
:100940003D02137801684C6824F4E0644C60002197
:10095000009101684C6900940D6845F001050D6037
:10096000009901680C6824F480640C600468616874
:100970000D050DD51578222D1CBF11782A2903D11C
:10098000856B29684E6802E0416B0D686E6846858C
:10099000418DD1B16569690707D5416A4D1C456232
:1009A00024690C70418D4C1E448501684C696506B4
:1009B00007D5446A651C456209692170418D4C1E4A
:1009C0004485016C41F004010164016C11B100F037
:1009D0005FF81CE0282B1CBF2A2B292B0BD1DFF83A
:1009E000E411C162002101632021117000215170C6
:1009F00000F018FC0BE0016B222918BF222B06D156
:100A00000023036320211170537000F006FC0020C6
:100A100076BD00000000FFFF38B500F13D016FF426
:100A200080620B78C46ADFF89C51042C14BF082C38
:100A3000282B15D1C56203685C6824F4E0645C600F
:100A400003685A610268146824F480641460002208
:100A5000026320220A7000224A7000F0E3FB15E0D6
:100A6000212B11D1C562036320230B7000234B702F
:100A700001684B6823F4E0634B6001684A61FFF74B
:100A80004EFF00F0C9FB01E000684261002032BD6A
:100A900038B5044604F13D052878292818BF2A28CE
:100AA00004D100202063282028700BE028786028DB
:100AB00005D02168486801055CBF2021297000200D
:100AC0002063687000F05CF8206841680A0523D54F
:100AD000416821F400614160606B0FF2ED0190F814
:100AE0002120012A09D04163606B00F056FC0028E8
:100AF00029D000F04BF8606B0BE0A06B4163A06B5A
:100B000000F04BFCF8B1206800F031F800F03EF83E
:100B1000A06B416B884716E0297860290ED120220E
:100B20002A700022226400F022F820680168490837
:100B300049000160204600F0ACFD04E000F017F829
:100B4000204600F0A7FD287828280FD1216C4807FF
:100B50000CD5FFF75DFB00202063202028700020CB
:100B600068702046BDE8324000F05CBB31BD416991
:100B70004A0604D5616A4A1C6262006908707047BF
:100B80002068016821F400610160704720680168F5
:100B9000490849000160202028707047400001008A
:100BA000800001002068016841F400710160704715
:100BB0000400100002000100080001001000010004
:100BC000000101000000FFFF406A01680A6822F48A
:100BD00080620A6000214185426B5163826B5163E0
:100BE00000F13D010B78602B0BD120220A7000220E
:100BF0004A70026401680A68520852000A6000F0F4
:100C000048BD20230B7000224A7001680A68520810
:100C100052000A6000F03EBD80B537483749016098
:100C20003749416000218160C1604FF4804101611A
:100C3000002141618161C1610162FFF779FA30B140
:100C4000BDE804404F210FF2CC0000F011BE01BD01
:100C5000F0B5044685B020682849884249D1C021B2
:100C60001220019102900322049201A92548264DE9
:100C7000264E0FF2A00700F0FDFD2548016841F463
:100C80000011016005F11401006800F400100090EB
:100C90000098316000207060B0608020F06000201B
:100CA000306170612020B0610020F061304600F0BA
:100CB000F7FA18B17621384600F0DAFD1020A66365
:100CC000B06474620020F064756480203065002098
:100CD0007065B065F065306606F1440000F0E0FA3A
:100CE00018B18621384600F0C3FD06F14400606368
:100CF000B46605B0F0BD00004C1D0020005400405B
:100D0000A0860100000C01406C000240C41C0020C1
:100D10001C100240453A5C4D6F746F7254657374D9
:100D20005C4D5444535C4D5476312E305C537263A9
:100D30005C6932632E6300002DE9F8430646DFF854
:100D400098543078C1074AD5686800F00C00042830
:100D500007D0686800F00C0008280BD16868C10350
:100D600008D5296888033AD57068002840F0C0800B
:100D7000012069E17068B0F5803F0FD038B929686B
:100D800021F480312960286820F4802009E0B0F542
:100D9000A02F296807D141F480212960286840F4F8
:100DA0008030286006E021F4803129602A6822F42E
:100DB00080222A60706868B100F04CFE0446296801
:100DC000880300F1958000F045FE001B6528F6D3EE
:100DD000032039E100F03EFE04462868810340F11B
:100DE000878000F037FE001B6528F6D3F0E700F09F
:100DF00031FE001B022840F2AA80E9E7306970B199
:100E00000121396000F026FE04462868810700F1C0
:100E1000DC8000F01FFE001B0228F6D9D8E73860FE
:100E200000F018FE04462868810765D500F012FE20
:100E3000001B0228F7D9CBE7086000F00BFE044640
:100E4000686A810777D500F005FE001B0228F7D9F4
:100E5000BEE708B9286A09E00528286A06D140F0EB
:100E600004002862286A40F0010005E040084000C4
:100E70002862286A20F00400286241F28938F0686C
:100E800068B100F0E7FD8146286A810700F1AA8079
:100E900000F0E0FDA0EB09004045F5D398E700F035
:100EA000D9FD8146286A810740F19C8000F0D2FD7F
:100EB000A0EB09004045F5D38AE700F0CBFD001B0D
:100EC000022840F2A28083E700F0C4FD001B022844
:100ED00040F2B5807CE700F0B9F80446286881014B
:100EE00040F1B18000F0B6FD001B0228F6D96FE793
:100EF0003078DFF8F07281071BD5686810F00C0FAE
:100F000009D0686800F00C0008287FF477AF6868A3
:100F1000C1033FF573AF2968880703D530690128FD
:100F20007FF426AF2968706921F0F80141EAC00119
:100F30002960317808071DD5B069DFF8AC120028A8
:100F40003FF47AAF01220A6000F084FD0446686A2B
:100F500081077FF54CAFDFF884120868C0084FF4B2
:100F60007A72B0FBF2F2009200BF0098411E002896
:100F70000091F9D13078410739D5E8690024C100E2
:100F800009D4E86940F08050E8610124E86900F084
:100F9000805000900098DFF85482D8F80010C805FF
:100FA0001BD4D8F8000040F48070C8F8000000F0AE
:100FB00051FD8146D8F80010C8050ED400F04AFD56
:100FC000A0EB09006528F5D302E72868716920F0D5
:100FD000F80040EAC1002860ABE7F06801287FF420
:100FE00038AF3FE71CB1E86920F08050E861F06954
:100FF00048B3696801F00C0108293FF4B9AE022832
:101000007FF469AF00F022F80446286881013FF5BB
:1010100054AF306AB0F5803F05D16968B06821F4FB
:101020000031014369606968306A21F47411014339
:10103000706A01436960012000F009F804462868DD
:1010400081017FF541AF0020BDE8F28300203866C2
:1010500000F000BD2DE9F843654F05463868894624
:1010600000F00700484502D200F07AF86CD12978E8
:10107000594C880705D56168A86821F0F001014343
:1010800061602878C10757D56868012802D12168B6
:101090008A0303E0022803D121688A0103D453E0C4
:1010A0002268910750D56168890840EA8100606034
:1010B00041F2893800F0CEFC0646686801280BD161
:1010C000606800F00C00042836D000F0C3FC801BE0
:1010D0004045F5D303202DE0022837D1606800F0A9
:1010E0000C00082828D000F0B5FC801B4045F5D343
:1010F000F0E72878410705D56168E86821F4E061E8
:10110000014361602878010706D56068296920F4E9
:10111000605040EAC100606000F02CF86268354918
:10112000C2F30312895C2D4AC8401060002000F011
:1011300097FC0020BDE8F283386800F00700814585
:10114000D7D200F00DF8D4D00120F3E7606810F09A
:101150000C0FF1D000F07EFC801B4045F6D3B9E7C0
:101160003968C90849EAC1013960386800F00700E8
:101170004845704720490A6802F00C00082814D13D
:101180000FF28003C2F38340D203185C0AD50968CA
:101190000FF28003124AC1F34041595CB2FBF1F1F6
:1011A000484370471549484370470D4870470B48FE
:1011B000006870470948104A006813681049C3F373
:1011C000022206E005480C4A006813680C49C3F384
:1011D000C222895CC8407047001002400000002015
:1011E00000127A0000004242800442420070004037
:1011F00000200240CC4700080410024000093D00D6
:10120000C848000802030405060708090A0B0C0D6C
:101210000E0F1010010270477047704770477047FB
:10122000704770477047F0B402461068956813180D
:10123000506803EB5004C00721D54D441FE0F0BCBB
:1012400002F10C00704713F8017B05F8017B491E81
:10125000F9D1A0B1B60813F8011B06F00306032E5E
:1012600008BF13F8016B01EB06214942801C294499
:1012700005D011F8016B05F8016B401EF9D1A342AE
:10128000DDD013F8016B16F0030104BF13F8011B46
:10129000C91C30090F28DAD113F8010B0F30D6E73B
:1012A00030B508B9012030BD0268DFF880138A42EA
:1012B00000F1280306D2DFF8781300F02DF8DFF8EC
:1012C000741305E0DFF8701300F026F8DFF86C13F4
:1012D0005961022180F82110146841686FF30D14E0
:1012E0000C4381680C43C1680C4301690C4341699C
:1012F0000C4381690C43C1690C43146000211960DF
:1013000059609960D9601961012180F8211000218C
:1013100080F82010002030BD8C181425B4FBF5F4A3
:10132000A4009C617047F8B50446002594F820009D
:10133000012801D10220F2BD94F8210001260128E4
:1013400084F8206024D1022684F8216004F12C0660
:10135000F560206807687F087F000760204600F07E
:1013600087F92168306820B10A6842F00E020A60ED
:1013700008E0086820F0040008602068016841F077
:101380000A0101602068026842F00102026002E086
:1013900084F8205002252846F2BDF8B590F82120A7
:1013A0000024022A00F1340103D004204860012403
:1013B0005FE00268DFF88862136823F00E031360B1
:1013C0004FF48077026815686D086D0015604FF462
:1013D00080320368B3424FF4805519D9DFF84C626C
:1013E000B34208BF012210D0DFF85862B34208BFF1
:1013F00010220AD0DFF85062B34208BF3A4604D048
:10140000DFF84862B34208BF2A46DFF8443227E0DB
:10141000DFF840C263451CD0DFF83CC263451AD0F8
:10142000DFF838C2634518D0DFF83472BB420EBF14
:101430002A46DFF83052AB4210D0DFF82C52AB42D4
:1014400008BF4FF4801209D0B34207D14FF0807229
:1014500004E0012202E0102200E03A46DFF80C32FC
:101460001A60012280F8212080F82040096801B12B
:1014700088472046F2BD2DE9F84F00F128020427E5
:101480005169744BD1F800E004686D49256896698C
:10149000DFF8BC81DFF8B491DFF8ACA1DFF8A4B1CC
:1014A000DFF888C1B7401EEA070F4AD06F0748D55A
:1014B0002568AD0603D4256825F0040525604FF4A2
:1014C000802407688F424FF480454FF4806611D91D
:1014D000674508BF04240AD05F4508BF402406D0F2
:1014E000574508BF344602D04F4508BF2C46C8F8C0
:1014F000004020E09F4217D0574B9F4216D0574BD9
:101500009F4215D0564B9F420EBF2C46554B9F42D3
:101510000FD0554B9F4208BF4FF4800409D08F4233
:1015200007D14FF0806404E0042402E0402400E08E
:1015300034464E490C605168002974D0BDE8F44F20
:1015400008470227B7401EEA070F4FD0AF074DD517
:101550002568AD0606D4256825F00A052560012416
:1015600080F821404FF4003407688F424FF4005553
:101570004FF4007611D9674508BF02240AD05F45B1
:1015800008BF202406D0574508BF344602D04F4537
:1015900008BF2C46C8F8004020E09F4217D02E4BD1
:1015A0009F4216D02D4B9F4215D02D4B9F420EBF10
:1015B0002C462C4B9F420FD02B4B9F4208BF4FF421
:1015C000001409D08F4207D14FF0007404E00224C8
:1015D00002E0202400E0344624490C60002180F819
:1015E00020101168F9B1BDE8F44F0847082101FA4D
:1015F00006F61EEA060F16D0290714D5216821F039
:101600000E012160012391698B4051694B600123D8
:101610000021136180F8201080F82130916811B109
:10162000BDE8F44F0847BDE8F18F00000804024010
:10163000F8FFFDBF00000240F8FBFDBF00040240C0
:10164000800002401C040240300402404404024076
:1016500004040240080002401C0002403000024026
:1016600044000240580002406C0002400400024066
:1016700038B5046C0125A540C46B656004686360DF
:101680004068102802D1A260E16031BDA160E26033
:1016900031BD70477047000010B5714CFF202070BD
:1016A000607000F0F1F900F055F800F0FFF900F07B
:1016B0003DFA00F05BFA00F0E7FA00F041FB00F0C1
:1016C0009DFB00F0FBFBFFF7A7FA0022002125207D
:1016D00000F02CFC252000F046FC00220021142004
:1016E00000F024FC142000F03EFC002200210B201E
:1016F00000F01CFC0B2000F036FC002200211E2014
:1017000000F014FC1E2000F02EFC002200211F20FF
:1017100000F00CFC1F2000F026FC002200212020FD
:1017200000F004FC202000F01EFC4E4800F063FC9A
:1017300032224D494D4800F099FE207A0128FCD113
:10174000617A0129F9D10621204601F055F80020DF
:101750006072F2E700B5002195B001200D910B9069
:10176000022112914FF480300C90012213904FF41B
:1017700080110F9214910BA8FFF7DEFA00B1FEE77B
:101780000F21009102200021019002914FF480600E
:101790004FF4A0610390049168460121FFF75AFCC1
:1017A00000B1FEE7122005904FF400414FF4800095
:1017B0000A90079105A801F039F800B1FEE7FFF79C
:1017C000F6FC4FF47A71B0FBF1F000F0D6FB042088
:1017D00000F0E7FB002200214FF0FF3000F0A6FBF5
:1017E00015B000BD1F4B1E4910B500681C680A8A61
:1017F000A04206D1521C92B2062A02DB0120487296
:1018000000220A8210BD194900680A68904200D07F
:10181000704710B5002000210022134B53F82040E0
:10182000401C6118C0B253F82040401CA218C0B23E
:101830003228F3DB0A4B987289B2192091FBF0F041
:10184000988192B2192092FBF0F0D8819889D870D3
:10185000010A9970D8895871010A197110BD0000E8
:10186000A81E0020E41D0020FC1B0020641E002098
:10187000FEE700002DE9F84F83460F460020804622
:101880006549664A664B4FF00F094FF0010A3C6804
:101890000AFA08F606EA040EB64540F0AE807C6807
:1018A0003CB3012C1AD0022C1DD0032C2ED0112CAD
:1018B00016D0122C1AD05B4DAC421CBF5A4DAC4214
:1018C00017D05A4DAC421CBF594DAC4211D0594DA6
:1018D000AC421CBF584DAC420BD018E0F86816E083
:1018E000F868001D13E0F868083010E0F8680C3064
:1018F0000DE0B86808B9042009E0012819BF0820E4
:10190000CBF814600820CBF8106000E00020BEF592
:10191000807F03D2DC464FEA880404E0A8F1080483
:101920000BF1040CA400DCF8005009FA04F6B543EE
:1019300000FA04F42C43CCF800407C68E4005CD549
:101940001C6844F001041C604FEA980C1D6805F007
:1019500001050095009C52F82C604FEA880404F0C1
:101960000C0409FA04F526EA0505344EB34508BF10
:10197000002618D0324EB34508BF012613D0314E91
:10198000B34508BF02260ED02F4EB34508BF03262D
:1019900009D02E4EB34508BF042604D02C4EB345C3
:1019A0000CBF0526062606FA04F42C4342F82C4008
:1019B0006FEA0E067C68E50304D50D684EEA05055E
:1019C0000D6002E00C6834400C607C68A5034C6834
:1019D0004CBF4EEA040434404C607C68E5028C68DD
:1019E0004CBF4EEA040434408C607C68A502CC688D
:1019F0004CBF4EEA04043440CC6008F10108B8F151
:101A00000F0F7FF644AFBDE8F18F81B002B9090432
:101A1000016101B07047000000040140080001406E
:101A200018100240000011100000121000002110D8
:101A300000002210000031100000321000080140A8
:101A4000000C01400010014000140140001801404A
:101A5000001C014001480068704700BFBC1E002008
:101A600010B508490A6804464FF47A70B2FBF0F0EA
:101A700000F083FA002221464FF0FF3000F056FAC2
:101A8000002010BD0000002080B50748016841F02B
:101A900010010160032000F03CFA0020FFF7E0FF96
:101AA00000F038FF002002BD0020024018B51D489C
:101AB0001D4C85B0016841F020010160026802F010
:101AC000200200920099016841F00401016002685F
:101AD00002F0040200920099016841F010010160D7
:101AE000026802F01002009200220099016841F0A1
:101AF000080101604FF4E051006800F00800009018
:101B000000982046FFF781FF4FF4E050019001213B
:101B100002200291049001A92046FFF7ABFE06B017
:101B200010BD00BF181002400010014080B50E48E3
:101B3000016841F0010101600022006800F001002D
:101B4000009000210098102000F0F0F9102000F023
:101B50000AFA00220021112000F0E8F9BDE8024055
:101B6000112000F000BA00BF141002403EB5374CFF
:101B700037480FF2F00520604FF48070A06001201C
:101B8000E060002060614FF46020E0610020606050
:101B900002202061204600F0D7FB18B14F212846D3
:101BA000FFF766FE00200121009001910290694636
:101BB000204600F0D8FC18B159212846FFF758FEFE
:101BC00010200221009001912046694600F0CBFCD4
:101BD00018B162212846FFF74BFE37BD30B50446E9
:101BE00085B020681A4988422ED11A481A4D0168DA
:101BF00041F4007101600121006800F40070009060
:101C00000322009815480191029201A9FFF732FEC4
:101C100000206860A8608020E8604FF400702861B0
:101C20004FF4006068612020A86100200C49E86141
:101C300029602846FFF734FB20B186210FF22400EB
:101C4000FFF716FE25626C6205B030BD641E0020F1
:101C50000024014018100240A01D0020000801408F
:101C600008000240453A5C4D6F746F72546573749E
:101C70005C4D5444535C4D5476312E305C5372634A
:101C80005C6164632E6300003EB5204C20480FF277
:101C90008C052060204600F083FE18B147212846BD
:101CA000FFF7E6FD002000900190002269462046E3
:101CB00000F08AFE18B150212846FFF7D9FD102206
:101CC0006946204600F080FE18B157212846FFF7EC
:101CD000CFFD37BD00680E49884200D0704700B57F
:101CE0000C4885B0016841F0005101603021006866
:101CF00000F00050009003220098074801910292E2
:101D000001A9FFF7B7FD05B000BD0000941E00203B
:101D1000007400401C10024000080140453A5C4D30
:101D20006F746F72546573745C4D5444535C4D54BE
:101D300076312E305C5372635C6461632E63000005
:101D4000224838B5224C0FF29005206086B02F2033
:101D500060600020A06040F2E730E0600020206179
:101D60008020A061204600F039F918B149212846A9
:101D7000FFF77EFD4FF48050029002A9204600F04C
:101D8000FBF918B14F212846FFF772FD00200090A3
:101D900001906946204600F03BFE18B156212846C6
:101DA000FFF766FD07B030BD81B000680749884283
:101DB00009D10848016841F004010160006800F0A1
:101DC00004000090009801B0704700000008004037
:101DD000E41D00201C100240453A5C4D6F746F7288
:101DE000546573745C4D5444535C4D5476312E30BD
:101DF0005C5372635C74696D2E63000080B521488A
:101E0000214901604FF4E131416000218160C160EE
:101E100001610C21416100218161C16100F01EFE60
:101E200030B1BDE804404C210FF26800FFF720BD3F
:101E300001BD00681449884200D0704718B51348A6
:101E4000134C85B0016841F4804101604FF400718A
:101E5000006800F480400090022200980191032065
:101E60000490029201A92046FFF704FD4FF4806020
:101E70000021019002910391204601A9FFF7FAFC8D
:101E800006B010BD241E002000380140181002408A
:101E900000080140453A5C4D6F746F72546573746D
:101EA0005C4D5444535C4D5476312E305C53726318
:101EB0005C75736172742E630000000010B5094CEC
:101EC00009490022204600F089FF0849204600F019
:101ED00098FF0749204601F06FF92046BDE8104001
:101EE00000F097BFB815002024010020100000204A
:101EF000140100200901002881B006D52F4A00F006
:101F00000F00104400F8041C01E02D4A115401B0E8
:101F100070472C4A13684FF6FF0100020B4000F493
:101F2000E0601843284908431060704738B5254BD6
:101F30001C68C4F30223C3F10704052C28BF042442
:101F40001D1D072D34BF0023DB1E012505FA04F4F7
:101F5000641E2140994005FA03F35B1E1A401143A9
:101F6000BDE83440C6E7012200F01F01174BFFE730
:101F70008A40400943F82020704710B5401EB0F158
:101F8000807F01D3012010BD114C60600F214FF004
:101F9000FF30FFF7AFFF0022A26007202060002083
:101FA00010BD04280A4904D1086840F00400086004
:101FB00070470A6822F004020A60704718ED00E0DA
:101FC00000E400E00CED00E00000FA0500E100E0B4
:101FD00010E000E000F000B87047000038B50400E1
:101FE00001D1012032BD00F01FF818B900F018F837
:101FF000FFF7DAFE0AE00068C16841F00101C16044
:10200000026842F0010202600020704702206870FE
:10201000211D206800F01BF901206870002032BDEE
:10202000002129702046704704F13C05687870470C
:1020300010B50446206801698A0715D5C1688A076A
:1020400012D56FF00202026101212177806910F040
:10205000030F204602D001F0EDF803E001F0EBF8A9
:1020600000F087F800202077206801694A0715D51D
:10207000C1684A0712D56FF004020261022121777C
:10208000806910F4407F204602D001F0D3F803E0CD
:1020900001F0D1F800F06DF8002020772068016988
:1020A0000A0715D5C1680A0712D56FF00802026148
:1020B00004212177C06910F0030F204602D001F0FF
:1020C000B9F803E001F0B7F800F053F800202077EA
:1020D00020680169CA0615D5C168CA0612D56FF015
:1020E0001002026108212177C06910F4407F204668
:1020F00002D001F09FF803E001F09DF800F039F8FC
:102100000020207720680169CA0708D5C168CA077E
:1021100005D56FF0010202612046FFF763FB2068DE
:1021200001690A0608D5C1680A0605D56FF0800264
:102130000261204601F080F8206801694A0608D54E
:10214000C1684A0605D56FF040020261204601F0E1
:1021500074F8206801698A060AD5C1688A0607D51D
:102160006FF0200202612046BDE8104001F066B821
:1021700010BD204601F063B838B500F05DF801D11C
:10218000022032BD01222270022060702A68DFF82E
:1021900034019368034093600868002837D0102802
:1021A00037D0202837D0302837D040282BD050289F
:1021B0001ED0602820D070280BD0B0F5805F03D0EF
:1021C000B0F5005F0CD02CE028688168C908C90010
:1021D0000CE000F028F82868816841F0770105E0FC
:1021E00000F021F82868816841F48041816018E09E
:1021F00000F01EF8502111E0CA684968286800F014
:102200007CF860210AE000F013F8402106E000218C
:1022100004E0102102E0202100E03021286800F0D5
:102220007EF80FE00000CB684A68896828687EE085
:10223000CA684968286851E0054605F13C042078E1
:1022400001287047012060700020207032BDF0B579
:10225000DFF874C01D4F03681D4C1E4D1E4E6045B7
:1022600018BFB84208D0B0F1804F18BFB04203D0B9
:10227000A84218BFA0420DD14A6823F0700313434F
:10228000604518BFB84207D0B0F1804F1CBFB042C4
:10229000A84201D0A04203D1CA6823F4407313437B
:1022A0004A6923F080031343036060458A68C26271
:1022B0000A68826212BFB842096901630121416163
:1022C000F0BD00008800FFFF002C014000340140F9
:1022D000000C0040000800400004004010B5036AF4
:1022E000046A64086400046223F00A03846924F029
:1022F000F00444EA0214846123E010B5036A23F079
:10230000100303628369046A23F4704343EA0233CF
:1023100024F0A004836144EA0114046210BD8268C1
:1023200022F07002114341F007018160704710B53F
:10233000846824F47F442143114341EA03218160EE
:1023400010BD1943016210BDF8B5044600270026F0
:10235000002C7AD004F12405686820B9AE6028709A
:102360002046FFF73BFC204600F0C6F96968CA0624
:102370006CD401006AD1696821F4885141F00201EE
:1023800069602368DFF84813E269D4F804C08B421F
:1023900004BFB2F5402F4FF40022E16842EA0C027C
:1023A000D4F808C0BCF5807F14BFBCF1010F4FF416
:1023B0008077D4F814C0BCF1010F42EA41020FD17A
:1023C00031B9A169491E490341F400610F4307E097
:1023D000696841F020016960A96841F00101A960C4
:1023E000596821F469410F435F602368DFF8E41204
:1023F0009F680F4017439F60A168B1F5807F18BFA9
:10240000012902D12669761E36052168CB6A23F49C
:1024100070031E43CE622468DFF8BC12A3680B4031
:10242000934208D10021A960696821F0020141F0BE
:1024300001016960F2BD686820F0020040F0100000
:102440006860A86840F00100A86003E0686840F098
:10245000100068600120F2BD044604F124052878CC
:1024600001287047012129702046FAE02DE9FC4738
:10247000044689462068DFF87412DFF86882DFF8C6
:102480006872884218BF4045924603D1386810F4FC
:10249000702F64D1FFF7E1FF08BF022061D0FFF782
:1024A000E1FF0028064657D16968DFF83402014091
:1024B00041F4807169602068404518D1396811F491
:1024C000702F14D0686840F480106860396848053F
:1024D00005D5686820F4005040F480506860686852
:1024E000C10446BFA86820F00600002006E0696825
:1024F00021F48011696040684105E9E7A86053460E
:1025000000202870216A0FF235208862216A0FF2BC
:102510007520C862216A0FF2752008636FF002000F
:10252000226810604A462068816841F480718160A9
:10253000206800F14C01206AFEF7F5FE20688168F2
:1025400001F46021B1F5602F81680CBF41F4A00156
:1025500041F48011816003E00020287000E0012632
:102560003046BDE8F687F8B50A46002100F124039D
:1025700000911C78012C01D10220F2BD01251D70B3
:102580001F27546815680668072C08D2641E04EBE0
:102590008404D6F834C000F05EF8756312E00D2CA8
:1025A00008D2E41F04EB8404D6F830C000F053F8DE
:1025B000356307E00D3C04EB8404D6F82CC000F032
:1025C0004AF8F56207271668946805680A2E08D34A
:1025D0000A3E06EB4606D5F80CC000F036F8EC6073
:1025E00006E006EB4606D5F810C000F02EF82C6188
:1025F0001468102C18BF112C23D100683B4CA0424A
:102600001AD13B48046825021BD4056845F400052F
:1026100005601068102814D1304C36482568B5FB89
:10262000F0F00A2250430090009800281EBF009A44
:10263000521E0092F8D104E00121586840F02000B9
:102640005860002018700846F2BDB7402CEA070712
:10265000B4403C437047A7402CEA0707A5403D43E0
:10266000704738B504460020009020688168CA078A
:102670002AD481681F4A41F001018160174801682E
:10268000B1FBF2F2009202E00098401E0090009828
:102690000028F9D1FFF7DEF9054621688868C107EF
:1026A00012D4FFF7D7F9401B0328F6D304F1240016
:1026B0000022416841F010014160816841F0010150
:1026C00081600270012032BD002032BD0000000098
:1026D000003C0140FDF7E1FFFE0E1FFF000000205F
:1026E000FEF1FFFF002801400424014000240140C6
:1026F0000824014040420F0038B504462068816834
:10270000CA0719D58168490849008160FFF7A2F915
:10271000054620688168C8070ED5FFF79BF9401B66
:102720000328F6D3A06A40F01000A062E06A40F0EF
:102730000100E062012032BD002032BD416A8A6A98
:1027400012F0500F1BD1886A40F4007088620A684A
:10275000906800F46020B0F5602F04BFC8680028BE
:102760000AD18A6A22F480728A62886AC20403D417
:10277000886A40F0010088620846FFF744B8096A99
:102780000A6B1047406A00F05BBD0000406A816A36
:1027900041F040018162C16A41F00401C16200F070
:1027A00050BD000038B51E4C1E4D002205F50061DD
:1027B000204600F008FD2946204600F00CFD0020D0
:1027C00032BD002070470020704738B50446144DD4
:1027D0002146284600F0FFFC21781348532904BF06
:1027E000012202702278502A04BF0021017028467D
:1027F00000F00DFD002032BD10B5094CD4F81832A0
:102800000A46D3F8141209B1012010BD0146204632
:1028100000F0D9FC2046BDE8104000F0E2BC00000A
:10282000B815002058010020B01E00202DE9FC4101
:102830000646354D3078C10750D5A8690024C1003F
:1028400009D4A86940F08050A8610124A86900F06B
:102850008050009000982D4F3968C80517D438680B
:1028600040F480703860FFF7F5F880463968C80595
:102870000DD4FFF7EFF8A0EB08006528F6D303208E
:102880003FE0FFF7E7F8C01B404519D3F7E7E869D9
:1028900010F440701EBF716801F44071884212D07C
:1028A0001B49E86901220A6020F4407000220A6096
:1028B000E861C00707D5FFF7CDF8074641F2893830
:1028C000E8698107DDD5E969706821F44071014349
:1028D000E9611CB1A86920F08050A86131788807AF
:1028E00005D52A68B06822F4404202432A60307855
:1028F000C10605D52968706921F48001014329606A
:102900000020BDE8F6810000041002400070004085
:102910004004424280B52048016841F00101016055
:10292000006800F00100009000980320FFF7F1FA22
:10293000002200216FF00B00FFF7F8FA00220021BF
:102940006FF00A00FFF7F2FA002200216FF0090091
:10295000FFF7ECFA002200216FF00400FFF7E6FA1F
:10296000002200216FF00300FFF7E0FA00220021AF
:102970006FF00100FFF7DAFA002200214FF0FF307C
:10298000FFF7D4FA0548016821F0E06101600268B0
:1029900042F00072026001BD1810024004000140C4
:1029A00010B5040001D1012010BD207920B900210B
:1029B00061712046FFF78EF902202071002020610E
:1029C00001202071002010BD30B54379012B01D1C9
:1029D000022030BD012444710223037140F6FE75CC
:1029E00003681C689540AC430D6849680D439540E9
:1029F0002C431C60C02401680B6804FA02F223EA2D
:102A000002020A600121017100214171002030BDE4
:102A100030B500F13C031A78012A01D1022030BD03
:102A200001241C7002225A700268546824F0700459
:102A30005460046865680A681543656002689468B4
:102A400024F08004946002689468486804439460A9
:102A5000012058700020187030BD000038B5040007
:102A600001D1012032BD00F022F808B900F023F8AE
:102A700000F013F800F024F8FFE7416100F001F8DE
:102A800032BD2068C16841F40051C1600020686017
:102A900020206870A870002070472420687020688B
:102AA000C16821F40051C160204600F022B904F150
:102AB000380568787047002129702046FFF7B9B9BA
:102AC0002068016921F4904101612068416921F089
:102AD0002A017047416921F040014161606B7047F4
:102AE00038B5044625682968EA686B6911F00F005B
:102AF00007D188065DD590065BD52046BDE83240FB
:102B0000ACE0D80702D412F4907F52D0C80705D5A4
:102B1000D00503D5E06B40F00100E063480705D520
:102B2000D80703D5E06B40F00200E063880705D5C5
:102B3000D80703D5E06B40F00400E063080705D533
:102B4000D80703D5E06B40F00800E063E06B002895
:102B50006ED0890604D5900644BF204600F07EF86A
:102B600020684069E16B0A0701D440061BD5204666
:102B700000F05FF8206841694A060FD5FFF7AAFF09
:102B800060B10FF2CD014163606BFEF706FC0028D7
:102B90004ED0606B416BBDE8344008472046BDE82D
:102BA000324000F04FBB204600F04CFB0020E063B9
:102BB00031BD08062CD510062AD594F839002128F5
:102BC00036D1A168206AB1F5805F0DD10188C1F3CB
:102BD00008016960206918B9216A881C206207E031
:102BE000206A411C216203E0411C21620078686078
:102BF000E08C401EE08480B2D0B92068C16821F02A
:102C00008001C1602068C16841F04001C16031BDF0
:102C100048060DD550060BD5E86820F04000E86066
:102C2000202184F839102046BDE8324000F00BBB6B
:102C300031BD0168CA6822F49072CA6001684A69AD
:102C4000520852004A61202180F83A107047000073
:102C5000406A0021C185C18400F0F4BA80B590F8C3
:102C60003A10222943D18268B2F5805F14D1826A7A
:102C7000016941B903685968C1F308011180826A8A
:102C8000911C816218E001684B6803F0FF03138018
:102C9000816A4A1C82620FE001690029816A04D1BD
:102CA0004A1C82620268536805E04A1C826202681C
:102CB000536803F07F030B70C18D491EC18589B233
:102CC00099B90168CA6822F02002CA600168CA681E
:102CD00022F48072CA6001684A69520852004A614F
:102CE000202180F83A1000F0AFFA002002BD022047
:102CF00002BD2DE9F0470446642521680A69E068B1
:102D000022F4405202430A611926CA68314802403F
:102D1000A06802432069024360690243CA604A69AD
:102D2000A06922F4407202432B484A6181420ED1CD
:102D3000FEF748FA0746FEF745FA8046FEF742FAE4
:102D40008146FEF73FFA8246FEF73CFA0DE0FEF7B9
:102D500031FA0746FEF72EFA8046FEF72BFA814637
:102D6000FEF728FA8246FEF725FA06FB09F96168A4
:102D700089007743B7FBF1F206FB08F7B7FBF1F3E5
:102D8000B9FBF1F7B7FBF5F705FB17331B0132333E
:102D9000B3FBF5F3B2FBF5F203F0F00303EB021320
:102DA00006FB0AF74643B7FBF1F2B6FBF1F06421EC
:102DB000B0FBF1F005FB10252D0132356420B5FB89
:102DC000F0F0216800F00F00C3188B60BDE8F087B9
:102DD00000000000F3E9FFFF0038014038B508B9F2
:102DE000022032BD00F5FE74A3690BB10025A56178
:102DF00001B1616101212170027000F070FA0020C0
:102E000032BD0246002011B1C2F8141270470220F0
:102E1000704780B500F0A6FA002002BD10B5D0F8CA
:102E2000142202241AB11268904700B900242046E7
:102E300010BD80B5D0F814225368E0E038B50446E0
:102E400004F50275284600F0C2FC04F5FA70012171
:102E50000160418B4160017D11F01F0003D0022809
:102E60000BD005D30EE02946204600F01DFB0EE0F6
:102E70002946204600F0B0FB09E02946204600F034
:102E8000C7FB04E001F08001204600F095FA002025
:102E900032BD38B5044610460A0004F5FA731FD156
:102EA0001968032924D104F586714A680D68AA427D
:102EB0000AD2AD1A0D60954238BF2A46014692B239
:102EC000204600F0E0FC13E0186A016921B1187A8D
:102ED000032804BF20468847204600F0DCFC07E0BA
:102EE000186A826922B1187A032804BF20469047E5
:102EF000002032BD38B5044610460A0004F5FA75C4
:102F000038D1296802292FD1E269216A914207D27A
:102F1000521AE261014692B2204600F0A2FC11E092
:102F2000A269B2FBF1F001FB102090B98A4210D3E4
:102F3000686882420DD200220021204600F091FCF8
:102F400000206860002300220021204600F077FA6C
:102F50000AE0286AC16821B1287A032804BF204604
:102F60008847204600F09EFC287B01280AD10021DA
:102F7000297307E0286A426922B1287A032804BF2E
:102F800020469047002032BD10B504464023002261
:102F9000002100F0F4F94020C4F810014023002281
:102FA0008021204600F0EBF94020206204F5FE72FB
:102FB00001201070D06928B1926961685368C9B264
:102FC00020469847002010BD01740020704700F58E
:102FD000FE7001784170042102E000F5FE70417836
:102FE00001700020704780B500F5FE710A78032A51
:102FF00003D18969C96901B18847002002BD98479A
:10300000002002BD7CB506460025307C30B94FF467
:10301000007300F031F84FF4007303E0402300F038
:103020002BF8402302220121304600F0A8F90823A2
:1030300003228221304600F0A2F94FF4077000F01D
:103040000FFA040006F5067008BF0125046011D0D0
:1030500040680168884704F50170056145610268B0
:10306000307C00280CBF4FF4007340230121304610
:1030700000F0E5F9284676BD02228121304600F0B5
:103080007EB910B50446812100F089F9012120465E
:1030900000F085F98221204600F081F904F50674DC
:1030A000206838B1616848688047206800F0E4F91A
:1030B00000202060002010BDF8B50D46044604F540
:1030C000067329781E6811F060001ED0202824D1D4
:1030D000EA88A2B16878090606D55B689F68314620
:1030E000B847EA88314615E006F500710870E888AF
:1030F00048703146EA88204600F0BBFB0DE05B6873
:1031000068789C682946A04707E068780A2804D1B7
:1031100001222449204600F09CFB0020F2BDD0F89B
:10312000180220B10021C0F81412002070470220BC
:10313000704770B500F50674256805F5017600F056
:103140008BF9B060206838B162683068D36805F5E3
:1031500003719847002070BD022070BD10B500F5C6
:10316000067043680168002B1EBF01F500742078CB
:10317000FF2804D062789B689847FF2020700020C9
:1031800010BD432101800848704743210180074852
:10319000704743210180064870470A210180054895
:1031A00070470000BA1E00208C000020480000205C
:1031B000D0000020040000200246022011B1C2F815
:1031C0001C1200207047D0F8180200F50270016050
:1031D000826000207047D0F81802C0F80412002066
:1031E000704780B5D0F8181279B101F50272D16834
:1031F00049B90123D3608121936812689BB200F022
:1032000011F9002002BD012002BD022002BD80B5DF
:10321000D0F8181261B1D1F80422017C00290CBF4A
:103220004FF400734023012100F009F9002002BD92
:10323000022002BD70477047704770477047704763
:1032400070477047704770477047000081B0006852
:103250008449884209D18448016841F40001016031
:10326000006800F400000090009801B0704700F280
:103270002C41D0F85C04FFF7E1BD00EB4112D0F81F
:103280005C04D2F83C22FFF704BE00EB4112D0F8F8
:103290005C04D26BFFF72EBED0F85C04FFF7A3BE30
:1032A00010B504460121D4F85C04FFF78DFED4F874
:1032B0005C04BDE81040FFF767BE10B50446D4F8C3
:1032C0005C04FFF784FEA06920B16848016841F002
:1032D0000601016010BDD0F85C04FFF77EBE10B59A
:1032E000044663485F49C0F85C44C4F820020160AA
:1032F00008214160022181600321C16000218161B8
:10330000C161016200F0D5FA28B14FF48C710FF25F
:103310006C10FEF7ADFAD4F8200218230022002129
:1033200000F020FED4F8200258230022802100F073
:1033300019FED4F82002C0230022812100F012FEE1
:10334000D4F820024FF488730022012100F00AFE15
:10335000D4F820024FF480730022822100F002FE94
:10336000002010BD10B5D0F8200200F0F7FA0024BC
:1033700018B102280CBF01240224204610BD38B524
:103380001C461346D0F82002224600F09CFB002584
:1033900018B102280CBF01250225284632BD10B500
:1033A000D0F8200200F0A9FB002418B102280CBFBD
:1033B00001240224204610BD10B5D0F8200200F0F0
:1033C000EDFB002418B102280CBF01240224204682
:1033D00010BD10B5D0F8200200F00DFC002418B18B
:1033E00002280CBF01240224204610BD81B0D0F871
:1033F000200201F07F0200EB421009064CBF90F85A
:103400002A0090F82A0201B0704710B5D0F82002C7
:1034100000F04AFB002418B102280CBF012402244A
:10342000204610BD10B5D0F8200200F09EFB00240D
:1034300018B102280CBF01240224204610BD10B58B
:10344000D0F8200200F07DFB002418B102280CBF48
:1034500001240224204610BDD0F8200200F07DBBDC
:1034600004487047005C00401C10024010ED00E072
:1034700058110020DC17002070477047453A5C4D1A
:103480006F746F72546573745C4D5444535C4D5447
:1034900076312E305C5372635C757362645F636F68
:1034A0006E662E6300000000F8B50D46044668788D
:1034B000092804F5FE7646D8DFE800F06479457403
:1034C000450905455322204600F006F97FE0A9880A
:1034D000002904BFE888002835D13078AF78032868
:1034E00007F07F072FD0B77039462046FFF78DFFD2
:1034F00000F08BF8002F14BF02200120307066E02E
:10350000344F68883870397802291CDA3278022AF8
:1035100008461BD0032A16D139B90220307000208A
:1035200060602046FFF785FC4FE0616888424CD020
:10353000C9B22046FFF77DFC397861602046FFF76D
:103540006DFC022841D100F03FF940E000293CD059
:103550006060032030702046FFF760FC0228F2D044
:1035600033E0E8880128EED13178022904D003291C
:10357000E9D10122211D11E00020A060012204F107
:1035800008010BE03078801E0128DCD8B0680121EA
:1035900000B10321E160022204F10C01204600F099
:1035A00058F914E06888012811D1012107E030782A
:1035B000801E0128C7D86888012808D10021B26977
:1035C000B160294693682046984700F01EF8002015
:1035D000F2BD0000BB1E002038B5044604F5FE72A3
:1035E0000D46107803280CD12979022909DA92694D
:1035F0009368294620469847E88820B900F005F8E6
:1036000001E000F0E1F8002032BD204600F043B9AF
:1036100070B50D4604462878297900F0600020280E
:1036200004F5FE7602D100F051F84DE06A78002AE8
:1036300001F07F0026D0012A0FD0032A44D1307830
:10364000022810D003283DD1688828B900291EBF60
:1036500080292046FFF7B0FE0FE03278022A02D020
:10366000032A04D02EE000292ED0802911E06A8898
:1036700052BB20B12046FFF7ACFE00F027F8FFF761
:10368000C4FF21E03278022A02D0032A06D019E0D2
:10369000002819D02046FFF78FFE15E004EB00103C
:1036A0000A064CBF00F1140500F582752046FFF7AD
:1036B0009DFE00B10120286002222946204600F02C
:1036C000C8F801E000F080F8002070BDB26993688E
:1036D000294620461847000038B50D46044668883C
:1036E000010A012904F5047208D0022920D0032917
:1036F0002BD0062955D007295AD062E01268207CC9
:10370000136869469847BDF8001000291CBFE98876
:1037100000290CD0BDF800208A4288BF0A46ADF8C7
:1037200000200146BDF80020204600F092F831BD8F
:10373000207C51680028684604D1896A88470221A4
:103740004170E0E7C96A8847F9E7C0B2052838D870
:10375000DFE800F003090F151B211268207C536875
:1037600069469847CFE71268207C93686946984776
:10377000C9E71268207CD36869469847C3E7126896
:10378000207C136969469847BDE71268207C53691D
:1037900069469847B7E71268207C9369694698475D
:1037A000B1E7207C68B951684A6B68469047AAE740
:1037B000207C30B951680A6B6846904707224270F6
:1037C000A1E700F001F831BD2946204613E00A7850
:1037D00002704A784270CB788A7802EB03224280EA
:1037E0004B790A7902EB032282808A79C97902EB4C
:1037F0000122C280704710B504468021FFF7DCFD2E
:103800002046BDE810400021FFF7D6BD002800D1BA
:10381000704730B50346002400E0641C13F8015BD8
:10382000002DFAD12406E40DA41C14800223128872
:103830000A7003224A7008E010F8012BDBB2CA5468
:103840005B1CDBB20022CA545B1C0278002AF3D155
:1038500030BD80B513460222C0F8F4218361C361F4
:1038600001E080B513460A460021FFF7DBFD00208A
:1038700002BD80B513460322C0F8F42100F584721E
:103880001360536001E080B513460A460021FFF73C
:10389000D6FD002002BD80B50421C0F8F41100233C
:1038A0000022E1E780B50521C0F8F41100230022D1
:1038B000ECE778B585B0044600260CB9012046E057
:1038C00004F58565687818B92E702046FFF7BEFCB0
:1038D00003206870206800F064FB83B000F039F8C2
:1038E0000EBC206800F056FB2068002100F05EFB53
:1038F00004EB461028300121067086814170761C49
:1039000000210F2EC170016141618161F0D300205F
:10391000002304EB401101F50A7253701070888681
:10392000D370401C0F28136153619361F1D383B0AE
:1039300000F00FF80EBC206800F03AFB002084F87D
:10394000240001206870206800F005FE002006B009
:1039500070BD211D6846202200F02EBE10B500F07B
:103960009EF801D1022010BD00F08FF8206800F011
:10397000F0FD206800F010FB8DE010B5044600F06B
:1039800081F8010444BF204600F05AF900F07AF8AB
:1039900040050CD500F072F84FF6FF3000F06AF8E1
:1039A0002046FFF77DFC0021204600F07DF800F066
:1039B00069F8400405D500F061F84BF6FF7000F09F
:1039C00059F800F05FF8800405D500F057F84DF67F
:1039D000FF7000F04FF800F055F8C00417D52168CB
:1039E000B1F840204FF6FB700240A1F840204FF69E
:1039F000F770B1F840200240A1F840202046FFF7C0
:103A00006AFC00F03BF84EF6FF7000F033F800F06F
:103A100039F8000516D5206800F14002118841F000
:103A2000080111804FF2FF7193880B409380118839
:103A300041F00401118000F090FDC0045CBF2046FD
:103A4000FFF73BFC00F01EF8800508D500F016F8E3
:103A50004FF6FF5000F00EF82046FFF71DFC00F077
:103A600011F8C00505D500F009F84FF6FF6000F029
:103A700001F810BD0240A1F8442070472168B1F858
:103A800044207047206800F068BD012184F82814A4
:103A90002046FFF7F2BC002084F8280410BD04463D
:103AA00094F828040128704710B5FFF7F8FF01D1FA
:103AB000022010BD012284F8282484F824102068F4
:103AC00000F041FDE7E738B500F035F80D064CBFD2
:103AD000283000F50A7001F07F050570C9094170B2
:103AE0000261C37094F82814012901D1022032BD6B
:103AF00000F01BF800F06CFA9EE010B500F01BF827
:103B00000A064CBF283000F50A7001F07F020270EF
:103B1000C909417094F82814012901D1022010BD6F
:103B200000F003F800F06EFBB5E7012284F82824CA
:103B3000014620687047044601F07F0004EB401006
:103B4000704738B501F07F0400EB441505F50A74A1
:103B500000F01DF86270217013E001F00F0100EB1E
:103B60004110D0F8440280B2704738B501F07F04AC
:103B700000EB441505F1280400F009F8217001223A
:103B800062702146006800F0BCFB002032BD01F0ED
:103B90007F016261A3610022E261704738B505468A
:103BA0000C462106204606D500F07F0105EB4112A8
:103BB00002F1280103E005EB441303F50A71012229
:103BC0008A7004F07F040C70C009487095F82804CE
:103BD000012801D1022032BD85F82824286800F090
:103BE00055FC24B9286805F22C4100F0B9FC0020EE
:103BF00085F8280432BD38B5044608060A4606D5BD
:103C000002F07F0004EB401303F1280003E004EB13
:103C1000411505F50A700023837001F07F010170E2
:103C2000D209427094F82814012901D1022032BD32
:103C3000FFF77BFF00F04FFC002084F8280432BD22
:103C40002DE9F84F0021ADF80010ADF8001000F597
:103C50000A78064626E001880AEA0101018006F199
:103C600024043068B0F85010227901EBC20100EB57
:103C7000410000F204400068A169C0F3090020621D
:103C80000844A06100213046FFF7FFFA217849B1CE
:103C9000E06938B92178306841F08001A0F84C1013
:103CA00000212170306800F144010A88ADF800203D
:103CB000120440F13681BDF8004014F00F0440F6C4
:103CC0008F7748F60F7A6BD1BDF80020D306C2D5A6
:103CD0000388ADF80030BDF80020130514D589899C
:103CE00000F036F9B8F80420C3F30903C8F81C3013
:103CF00006F22C4100F051FC306801880F4007802B
:103D00003046FFF7B4FACDE7BDF800100A04C9D574
:103D10000288174007803068B0F8501000F018F99A
:103D2000C3F30903002BC8F81C300CD0B8F80420EA
:103D3000D8F8141000F031FCD8F81400D8F81C1092
:103D40000844C8F8140000213046FFF796FA30689E
:103D5000B0F8501000EB4100D8F810103F2900F2E5
:103D60000C4009D34A0911F01F0F08BF521E9202DE
:103D700042F4004292B205E04A08C90748BF521C0B
:103D80009206120C02604BF68F7230680188114067
:103D900081F4405141F4004141F08001018081E70C
:103DA00030F82410ADF8001006EB4415BDF80010F3
:103DB0000A0448F68F7957D530F824100F4020F8C0
:103DC000247005F50A77306897F800C0B97A61B9B0
:103DD000B0F8501001EBCC0200F0B0F82FD0BA8848
:103DE00079695B4600F0D9FB29E030F82C104904D2
:103DF000B0F850100DD511EBCC0200EB420303F2EA
:103E000004431968C1F3090BBBF1000F0BD0FA880A
:103E100005E011EBCC0200F091F804D03A895B4642
:103E2000796900F0BAFB3168387831F8202009EA66
:103E3000020242F4004242F0C00221F82020F96957
:103E40005944F961796901EB0B027A61BB6913B1DD
:103E500039698B4504D239783046FFF70EFA03E012
:103E600039783046FFF76DFEBDF80000010654D5E5
:103E7000306830F824100AEA010120F8241015F8FF
:103E8000281F3368A87ACA0058B9B3F850105218DE
:103E900000F04AF82AD0AA886969306800F06BFB04
:103EA00024E033F821004106B3F8500005D512187C
:103EB00000F03AF80ED0EA8808E0121803EB42044A
:103EC00004F20C4400F034F804D02A89696930689F
:103ED00000F051FB3168287831F8202009EA02020D
:103EE00042F4404242F0800221F8202030682978D4
:103EF000B0F8502002EBC10200EB420000F2044097
:103F00000068C0F30900E8616A6902446A613046EA
:103F1000AB69002B02D1FFF7B8F9C3E6FFF725FE26
:103F2000C0E60020BDE8F28F03EB420404F2044433
:103F30002368C3F30903002BEB61704700EB4203D6
:103F400003F20C431968C1F3090BBBF1000F704772
:103F500098F8002001EBC20100EB410101F20C4195
:103F60000B68704710B50C0605D501F07F0100EB1A
:103F70004110283003E000EB411101F50A7012B93D
:103F80008272838004E0C38001211B0C8172038153
:103F9000002010BD0EB417E0B0F8401041F43F41CE
:103FA000E0E2B0F8402044F2FF21DFE20020704759
:103FB0000EB4012120F8401F002101808180018280
:103FC000018841F43F410180002003B070470000A8
:103FD0002DE9F8430A4648F68F11D378032B16D8FB
:103FE000DFE803F0020F070A00F007F941F400715F
:103FF0000BE000F002F908E000F0FFF841F4C061C6
:1040000003E000F0FAF841F4806120F82310117801
:10401000884630F8286048F68F74264048F28003BE
:104020003143194320F828104BF68F78917A157890
:1040300000294CF2800648F6BF7748F2C00C55D1F3
:10404000918849084FEA410951780029B0F8501089
:1040500001EBC50500EB450116D001F58061C1F803
:104060000090117830F821506E0606D530F82150B6
:104070002C404CEA040420F82140117830F821202B
:10408000174087F020077BE001F58161C1F80090BF
:10409000B0F85010177801EBC70100EB410E116921
:1040A0003F290EF20C4E09D34F0911F01F0F08BF24
:1040B0007F1EBF0247F40047BFB205E04F08C907A3
:1040C00048BF7F1CBF063F0CCEF80070117830F857
:1040D00021707D0405D530F821703C40344320F830
:1040E000214000F084F882F440526EE030F8251050
:1040F000214041F4014141F0800120F8251000F0F9
:1041000070F8D58800EB410101F580616D086D0004
:104110000D6000F066F800EB410101F58165118941
:1041200049084900296092F800E0517851BB30F805
:104130002E50690405D530F82E1021400E4320F88A
:104140002E60117830F82160750606D530F82160B0
:1041500026404CEA060620F82160117830F82160EC
:1041600034404CEA040400F036F808EA040484F40D
:1041700040541C4320F82140117830F8212017408A
:104180003B4323E030F82E104D0405D530F82E10B7
:104190002140314320F82E10117830F821506D065F
:1041A00006D530F8215025404CEA050520F821506D
:1041B000117830F821502C40344300F00CF827409F
:1041C0001F4320F8217000F012F8134320F821302B
:1041D0000020BDE8F28320F82140117830F821401A
:1041E0007047B0F85010157801EBC5017047117891
:1041F00030F8212008EA02027047137830F8234093
:10420000214070472DE9F041024691F800E04878DE
:104210008B7A4BF68F764CF2800848F2800448F691
:10422000BF7548F2C00C48F68F77BBB9002832F84A
:104230002E0009D0430628D532F82E0007404CEA5C
:10424000070022F82E0020E0430439D532F82E0072
:10425000074048EA070022F82E0031E0002832F833
:104260002E001AD1430406D532F82E00384048EA11
:10427000000022F82E0000F033F84CEA070300F0AB
:1042800029F81E40264322F82060087832F82010D2
:104290000D402C4322F8204019E0430406D532F8A3
:1042A0002E00384048EA000022F82E0000F018F8EE
:1042B00048EA070300F00EF81D40254322F820507D
:1042C000087832F820100E40264322F820600020A3
:1042D000BDE8F08122F82030087832F820307047AD
:1042E000087832F820305B0606D532F820303B40A3
:1042F0004CEA030322F82030087832F820301F40BF
:1043000070472DE9FC410D4680466A78A869296905
:10431000012A074648F2800640D181423ABF0F4643
:10432000C01B0020A861A87A28B9AA8800F09FF8CD
:1043300000F0A1F829E02878C10038F820004206F2
:10434000B8F8500003D500F08BF82A8902E000F09D
:1043500087F8EA8800F08BF8687848F68F7140B9E2
:10436000287838F82020114041F4004141F0C00184
:1043700009E0012809D1287838F82020114041F4BB
:10438000404141F0800128F82010297838F8212098
:1043900048F6BF70024082F0300255E081423ABFD9
:1043A0000F46C01B0020A8617B08A97A4FEA571C62
:1043B00007F0010039B9B8F85020297802EBC102A2
:1043C00008EB42041EE0BAB900F044F808EB4101E2
:1043D0003F2F01F2044109D3624617F01F0F08BFB7
:1043E000521E920242F4004292B204E01A4600B118
:1043F000521C9206120C0A606978C9B900F02AF8BA
:1044000008EB41043F2F04F20C440BD317F01F0FAD
:1044100008BFACF1010C4FEA8C2040F4004080B2A0
:10442000206009E000B15B1C9B061B0C236003E0CD
:10443000012901D100F01FF84BF68F70297838F868
:104440002120024082F44052164328F821600020C7
:10445000BDE8F681B8F850102A7801EBC201704728
:10446000091808EB410404F20444276070476969A5
:10447000BBB240467FE0B8F85000297800EBC1009D
:1044800008EB400404F204442760704718B50A782A
:1044900048F2800352B901884BF6BF72114081F493
:1044A000805181F010010B43038012E0497830F80D
:1044B0002240002905D048F6BF710C4084F010045A
:1044C00004E04BF68F710C4084F48054234320F8B1
:1044D0002230002012BD70B50C784A7848F2800373
:1044E00048F68F75AAB130F82460720608D530F806
:1044F0002420154045F4004545F0C00520F824501F
:104500000A7830F8224048F6BF710C4084F030043D
:1045100014E030F82420560408D530F82420154043
:1045200045F4404545F0800520F824500A7830F8DD
:1045300022404BF68F710C4084F44054234320F802
:104540002230002070BD11B98021A0F84C1000204D
:1045500070470020704700207047B0F84400704753
:1045600000207047A0F84010002070470A40A0F8D3
:1045700040200020704710B500EB42005B1C00F5A6
:1045800080605B1007E00A784C7842EA0422891CBC
:1045900020F8042B5B1EF6D110BD00EB42005B1C23
:1045A00000F580605B1004E050F8042B21F8022B2A
:1045B0005B1EF9D170470000103A07D330B4B1E860
:1045C0003810103AA0E83810F9D230BC530724BF95
:1045D000B1E80810A0E8081044BF51F8043B40F8C7
:1045E000043BD20724BF31F8022B20F8022B44BF32
:1045F0000B7803707047121F17D35B0009D151F875
:10460000043B20F8023B1B0C121F20F8023BF6D2A1
:104610000BE051F8043B00F8013B1B0A20F8023B79
:104620001B0C121F00F8013BF3D238BF121D521EA3
:1046300024BF11F8013B00F8013BF8D87047000097
:10464000122008800F487047042008800E487047E9
:1046500010B500F013F80FF2500004E010B500F0B0
:104660000DF80FF25C002146FFF7D0F8204610BD90
:1046700010B500F003F80FF25C00F4E70A46034CB3
:10468000704700004001002054010020FC19002068
:1046900010B5FFF7F3FF0FF24C00E4E710B5FFF79A
:1046A000EDFF0FF24C00DEE753544D3332205669D4
:1046B000727475616C20436F6D506F7274000000EE
:1046C00053544D6963726F656C656374726F6E6984
:1046D00063730000303030303030303030303141B2
:1046E0000000000043444320436F6E66696700008A
:1046F00043444320496E746572666163650000003F
:104700007047FEE7FEE7FEE7FEE770477047704739
:1047100080B500F02DF8FDF75DFCBDE8014000F02C
:1047200027B80C48FCF7A7BE0B48FCF7A4BE0B4803
:10473000FCF7A1BE0A48FFF720B90A48FDF778BC8C
:104740000948FBF769BD0848FBF77FBE0748FEF73D
:10475000C7B90000A01D0020081D0020C41C0020B7
:1047600058110020E41D00204C1D0020241E0020B4
:1047700002480168491C0160704700BFBC1E002050
:104780000E49086840F0010008604A680C48024081
:104790004A600B680B4803400B60086820F48020D7
:1047A00008604FF41F004A6822F4FE024A608860E5
:1047B0004FF000600449086070470000001002409C
:1047C0000000FFF8FFFFF6FE08ED00E0000000002B
:1047D00000000000010203040607080919E050F870
:1047E000042BD30744BFA9F101039A18091F002322
:1047F000042942F8043BF9D25FEA817C134604D5D0
:104800004FF0000CA2F800C09B1CC90744BF002158
:10481000197050F8041B0029E1D1704710B5074901
:1048200079441831064C7C44163404E00A68081DAB
:10483000114488470146A142F8D110BD080000008C
:104840002400000099FFFFFF681D000058010020B0
:1048500000000000D3C9FFFF480100009E010000D6
:104860000000002000F00DF8002801D0FFF7D6FF6F
:10487000AFF300800020AFF30080FCF70DFF00F0E5
:1048800002F80120704700F001B8000007463846E2
:1048900000F002F8FBE7000080B5AFF30080024AA9
:1048A00011001820ABBEFBE726000200014880473C
:1048B0000148004781470008BD480008AFF3008069
:1048C000AFF30080FFF7CEFF0000000001020304F9
:1048D000FFF7FEBFFFF7FEBFFFF7FEBFFFF7FEBF0C
:1048E000FFF7FEBFFFF7FEBFFFF7FEBFFFF7FEBFFC
:1048F000FFF7FEBFFFF7FEBFFFF7FEBFFFF7FEBFEC
:10490000FFF7FEBFFFF7FEBFFFF7FEBFFFF7FEBFDB
:10491000FFF7FEBFFFF7FEBFFFF7FEBFFFF7FEBFCB
:10492000FFF7FEBFFFF7FEBFFFF7FEBFFFF7FEBFBB
:10493000FFF7FEBFFFF7FEBFFFF7FEBFFFF7FEBFAB
:10494000FFF7FEBFFFF7FEBFFFF7FEBFFFF7FEBF9B
:10495000FFF7FEBFFFF7FEBFFFF7FEBFFFF7FEBF8B
:10496000FFF7FEBFFFF7FEBFFFF7FEBFFFF7FEBF7B
:10497000FFF7FEBFFFF7FEBFFFF7FEBFFFF7FEBF6B
:10498000FFF7FEBFFFF7FEBFFFF7FEBFFFF7FEBF5B
:10499000FFF7FEBFFFF7FEBFFFF7FEBFFFF7FEBF4B
:1049A000100B00A24A040A060002000000400105A4
:1049B000100305300008830412B90412000110032B
:1049C0005D3100081F04433331106101128B101256
:1049D0008304129304129B04100D09024300020188
:1049E00000C0320904000001020B101E0524001053
:1049F0000105240100010424020205240600010728
:104A000005820308001009040100020A4E10020783
:104A10000501027B200107058107F228004422409E
:104A200007228107200100090744F2130444F2071A
:104A3000FF441003A5270008C30412C70412CB04C7
:104A40001003414600084904125D0412510412711A
:104A500004129104129D0412124310060202004037
:0F4A600083044057791702034500020403090439
:04000005080048BDEA
:00000001FF
