:020000040800F2
:10000000D804002045010008571400082F120008EA
:1000100055140008E90100084D190008000000000F
:100020000000000000000000000000007B14000839
:10003000EB01000800000000791400087D1400089E
:100040005F0100085F0100085F0100085F01000810
:100050005F0100085F0100085F0100085F01000800
:100060005F0100085F010008ED0100085F01000862
:100070005F0100085F0100085F0100085F010008E0
:100080005F0100085F0100085F0100085F010008D0
:100090005F0100085F0100085F010008F30100082C
:1000A0005F0100085F0100085F0100085F010008B0
:1000B0005F0100085F010008391500085F010008B2
:1000C0005F0100085F0100085F0100085F01000890
:1000D0005F010008411900085F0100085F01000886
:1000E0005F0100085F0100085F0100085F01000870
:1000F0005F0100085F0100085F0100085F01000860
:100100005F0100085F010008451500085F01000855
:100110005F0100085F0100085F0100085F0100083F
:100120005F0100085F0100085F0100085F0100082F
:10013000DFF80CD000F018F80048004771190008EB
:10014000D80400200648804706480047FEE7FEE73F
:10015000FEE7FEE7FEE7FEE7FEE7FEE7FEE7FEE777
:10016000F114000831010008064C074D06E0E06874
:1001700040F0010394E8070098471034AC42F6D3EE
:10018000FFF7DAFF141A0008341A00084FF4005180
:10019000014800F0E1B90000001001404FF4007187
:1001A000014800F0D9B90000000C01402DE9F041F0
:1001B0000B4F14460D46064601220221384600F038
:1001C000CFF923462A463146064800F0D2FF0446BE
:1001D00000220221384600F0C3F92046BDE8F08134
:1001E000000C014094000020FEE77047102000F052
:1001F000B3B810B54FF4807000F0AEF8BDE8104011
:100200004FF4007000F0A8B82DE9F05F90F82110CD
:100210000024022903D004218163012485E00168C0
:100220000A6822F00E020A6001680A6822F00102E0
:100230000A603F4E3E4FB215DFF8F4C0DFF8F09091
:10024000DFF8ECA0DFF8E8B0DFF8E4E00168783F21
:1002500013011502ACF1640CA9F15009AAF13C0A92
:10026000ABF1280BAEF1140E4FF48018B14227D930
:10027000B9420ED0614512D049451DD0514518D024
:10028000594518D0714501D1424615E0294EB14279
:1002900001D1012210E0274E1436B14201D11022C3
:1002A0000AE0244E2836B14206D0224A3C3291421E
:1002B00001D11A4600E02A461E49091F0A602BE0B8
:1002C000B94213D0614517D0494522D051451DD0C0
:1002D00059451DD0714501D142461AE0B14202D1C3
:1002E0004FF0807215E0134EB14201D1012210E0AF
:1002F000104E1436B14201D110220AE00D4E2836BC
:10030000B14206D00B4A3C32914201D11A4600E07C
:100310002A46074980394A60012180F821100021CE
:1003200080F82010416B01B188472046BDE8F09F5E
:10033000800002400804024031B500F017F9009C2B
:100340000546601C00D0641C00F010F9401BA04260
:10035000FAD338BD70470000044910B50A6802425C
:1003600002D00860FFF7F6FF10BD00001404014042
:100370002DE9F84FDFF8B8A100220AF1040B14466A
:1003800001274FF00F090BF1040E00BF0B6807FAAD
:1003900004F52B40AB4274D1DFF898C14E68A6EB50
:1003A0000C0866452BD00DDC032E34D005DC36B3AB
:1003B000012E19D0022E2FD11BE0112E16D0122E95
:1003C0002AD119E0B8F5881F19D006DCB8F5803FAE
:1003D00015D0B8F5801F1FD111E0B8F5001F0ED061
:1003E000B8F5041F18D10AE0CA6815E0CA68121DE2
:1003F00012E0CA6808320FE0CA680C320CE08A6862
:100400002AB1012A4FF0080203D0456104E004221A
:1004100002E0056100E00022FF2B01D8064601E062
:1004200000F104064FEA840501D9A5F12005D6F8AC
:1004300000C009FA05F82CEA080C02FA05F54CEAA6
:10044000050CC6F800C04D68ED006AD53A4DAE699E
:1004500046F00106AE61AD6924F0030605F0010522
:100460000095364D06EB050CDCF80850A6074FEA60
:10047000167809FA08F6B543314EB04202D100268B
:100480001AE04EE02F4EB04201D1012614E02E4E6C
:10049000B04201D102260FE02C4EB04201D103261A
:1004A0000AE02B4EB04201D1042605E0294EB042AD
:1004B00001D1052600E0062606FA08F62E43CCF800
:1004C00008604D68DAF80060ED03554601D51E431B
:1004D00000E09E432E604D68AD0305D5DBF800605B
:1004E0001E43CBF8006004E0DBF800509D43CBF8DE
:1004F00000504D68DEF80060ED02754601D51E43E0
:1005000000E09E432E604D68AD0205D5084D0C35C8
:100510002E681E432E6004E0054E0C3635689D4360
:100520003560641C102CFFF431AFBDE8F88F00007B
:1005300000040140000011100010024000000140C2
:1005400000080140000C014000100140001401406F
:1005500000180140001C0140C2684A40C260704758
:100560000AB1016170470904FBE700000148006817
:10057000704700000C00002002480168491C01601F
:10058000704700000C000020074810B5016841F0DA
:1005900010010160032000F08BF8002000F006F845
:1005A00000F018F8002010BD0020024010B50446ED
:1005B00007484FF47A710068B0FBF1F000F01FFBC0
:1005C00000222146501E00F053F8002010BD00000C
:1005D000100000201E4808B5816941F001018161C9
:1005E000806900F001000090032000F061F8002213
:1005F00011466FF00B0000F03BF8002211466FF03F
:100600000A0000F035F8002211466FF0090000F0F2
:100610002FF800221146501F00F02AF80022114640
:10062000101F00F025F800221146901E00F020F85F
:1006300000221146501E00F01BF80648416821F0C8
:10064000E0614160416841F00071416008BD000017
:10065000001002400000014000F01F020121914003
:100660004009800000F1E020C0F800117047000050
:10067000F0B40E4B1B680C46C3F30223C3F107050D
:10068000042D00D90425191D072901D2002300E0FB
:10069000DB1E012606FA05F1491E214099409E40C5
:1006A000761E16403143F0BC00F0D6BE0CED00E0E3
:1006B000064900F0070208684FF6FF03184040EAB9
:1006C0000220034A10430860704700000CED00E070
:1006D0000000FA052DE9F047DFF83C8105460E469B
:1006E000D8F8000000F00700B0420CD2D8F8001093
:1006F00021F007013143C8F80010D8F8000000F0DD
:100700000700B04263D12878444C800705D5606863
:10071000A96820F0F000084360602878C00745D041
:100720006868012816D02168022816D08907002998
:100730004DDA616821F0030101436160FFF716FFA4
:100740006968074641F2883001290FD002298146A5
:1007500019D027E021688903E9E78901E7E700BFAD
:10076000FFF704FFC11B494501D918E081466068C5
:10077000C0F381000128F3D118E000BFFFF7F6FEB7
:10078000C11B49450BD86068C0F381000228F5D130
:100790000CE000BFFFF7EAFEC11B494502D9032068
:1007A000BDE8F087606810F00C0FF3D1D8F80010A6
:1007B000404601F00701B1420BD9016821F0070161
:1007C00031430160006800F00700B04201D0012011
:1007D000E6E72878400705D56068E96820F4E0601E
:1007E000084360602878000706D56068296920F40E
:1007F000605040EAC100606000F03CF86168084A5F
:10080000C1F30311515CC840064908600020FFF79E
:10081000CDFE0020C4E7000000200240001002408E
:10082000FC19000810000020014800687047000013
:10083000100000200448054900684968044AC1F3D3
:100840000221515CC8407047100000200010024097
:100850000C1A00080448054900684968044AC1F3B5
:10086000C221515CC84070471000002000100240B7
:100870000C1A000810B512A385B00FCB8DE80F003D
:1008800013A0144B006804905A68134802F00C013E
:1008900004290FD008290DD1C2F38344D2031DF8D7
:1008A000041009D55A6804ABC2F340429A5CB0FB0D
:1008B000F2F0484305B010BD08484843FAE700008D
:1008C00002030405060708090A0B0C0D0E0F101091
:1008D000010200000010024000127A0000093D00F1
:1008E0002DE9F84F04460078B94DC00748D0686834
:1008F000C0F38100012807D06868C0F38100022896
:1009000009D16868C00306D52868800338D56068B7
:1009100000286FD034E06068B0F5803F0BD010B194
:10092000B0F5A02F11D0286820F480302860286806
:1009300020F4802002E0286840F48030286060685D
:1009400088B1FFF713FE064609E0286840F48020CE
:100950002860F0E7FFF70AFE801B642875D8286836
:100960008003F7D50CE0FFF701FE064605E000BF67
:10097000FFF7FCFD801B6428F0D828688003F7D4BB
:100980002078944E80074FF001094FF000083BD5C6
:10099000686810F00C0F07D06868C0F38100022867
:1009A00009D16868C00306D42868800714D5206977
:1009B00001281FD110E02069B0B1C6F80090FFF700
:1009C000D5FD074605E000BFFFF7D0FDC01B02289C
:1009D000C4D828688007F7D52868616920F0F80036
:1009E00040EAC10028600FE0C6F80080FFF7BEFDB6
:1009F000074606E0E9E000BFFFF7B8FDC01B02288C
:100A000023D828688007F7D4207800072CD57248AF
:100A1000A169D9B1C0F80090FFF7A8FD074604E02E
:100A2000FFF7A4FDC01B02280FD8686A8007F7D51E
:100A30006A484FF4FA510068B0FBF1F0009000BF33
:100A40000098411E0091FAD20EE080E0C0F80080CC
:100A5000FFF78CFD074604E0FFF788FDC01B022866
:100A600075D8686A8007F7D42078400760D5E869B0
:100A70000027C00008D4E86940F08050E861E869C8
:100A8000012700F08050009055480168C90513D433
:100A90000168834641F480710160FFF767FD82467B
:100AA00006E000BFFFF762FDA0EB0A0064284ED805
:100AB000DBF80000C005F5D5E06801280AD008B1D0
:100AC000052813D0286A20F001002862286A20F047
:100AD000040002E0286A40F001002862E06841F268
:100AE000883B98B1FFF742FD82460BE0286A40F050
:100AF00004002862EEE700BFFFF738FDA0EB0A0113
:100B000059455AD8286A8007F6D50CE0FFF72EFD24
:100B1000824605E0FFF72AFDA0EB0A0159454CD8B3
:100B2000286A8007F6D41FB1E86920F08050E86198
:100B3000E06988B36968C1F38101022945D00228C0
:100B4000C6F8608004D0FFF711FD044638E034E0B9
:100B5000FFF70CFD074604E0FFF708FDC01B022865
:100B60002BD828688001F7D4206AB0F5803F05D1E2
:100B70006868A16820F4003008436860D4E908017F
:100B80000843696821F4741108436860C6F86090EE
:100B9000FFF7ECFC044606E015E000BFFFF7E6FCBB
:100BA000001B022809D828688001F7D50BE000BF98
:100BB000FFF7DCFC001B022802D90320BDE8F88FF8
:100BC00028688001F4D40020F8E70120F6E700004F
:100BD0000010024000004242800442421000002007
:100BE000007000404FF0E0210428086903D020F095
:100BF00004000861704740F00400FAE7704710B540
:100C0000401EB0F1807F01D3012010BD4FF0E024E1
:100C100060610F21601700F01FFC0020A061072019
:100C20002061002010BD10B5FFF7E8FF10BD704730
:100C3000704730B590F83C20012A20D0012280F87E
:100C40003C20022380F83D3003685C6824F0700487
:100C50005C6003685C680D682C435C6003689C689A
:100C600024F080049C6003689C6849680C439C6085
:100C700080F83D20002180F83C10084630BD02205D
:100C800030BD10B5040003D094F83D0010B107E06A
:100C9000012010BD002084F83C00204600F00CF834
:100CA000022084F83D00211D206800F051FC012045
:100CB00084F83D00002010BD08B50C4A01680C48BE
:100CC000914207D1C16941F00401C161C06900F0DE
:100CD000040009E0074A914207D1C16941F00801C7
:100CE000C161C06900F00800009008BD0008004024
:100CF00000100240000C00400168CA6842F0010286
:100D0000CA600068016841F001010160002070477D
:100D100070B5044690F83C00012817D0012584F8EE
:100D20003C50022084F83D002068826822F077025F
:100D300022F47F4282600868502837D00DDC2028DA
:100D400059D005DC88B3102841D151E0022070BD94
:100D5000302853D040283AD13FE060282ED0702868
:100D60000BD0B0F5805F03D0B0F5005F2FD110E05D
:100D70002068816821F0070115E0CB68D1E90121E5
:100D8000206800F02BFC2168886840F077008860BC
:100D90001DE0CB68D1E90121206800F01FFC20682C
:100DA000816841F48041816011E01EE0CA684968B1
:100DB000206800F025FC5021206806E0CA684968D8
:100DC000206800F02EFC6021206800F011FC84F8FF
:100DD0003D50002084F83C0070BDCA684968206816
:100DE00000F00EFC40212068EFE700212068ECE7CE
:100DF00010212068E9E720212068E6E730212068FB
:100E0000E3E7704770B50446006801694FF00005DC
:100E1000C943890715D4C168C943890711D4E91E9C
:100E2000016101202077206880698007204602D078
:100E3000FFF7E7FF04E000F098F8204600F096F88E
:100E4000257720680169C943490717D4C168C94398
:100E5000490713D46FF00401016102202077206854
:100E6000806910F4407F204602D0FFF7CAFF04E0FB
:100E700000F07BF8204600F079F8257720680169BA
:100E8000C943090716D4C168C943090712D46FF0D2
:100E900008010161042020772068C069800720468E
:100EA00002D0FFF7AEFF04E000F05FF8204600F04C
:100EB0005DF8257720680169C943C90617D4C16860
:100EC000C943C90613D46FF01001016108202077CF
:100ED0002068C06910F4407F204602D0FFF791FFE0
:100EE00004E000F042F8204600F040F82577206842
:100EF0000169C943C90708D1C168C943C90704D1F9
:100F0000891E0161204600F033F820680169C94359
:100F1000090609D4C168C943090605D46FF08001E8
:100F200001612046FFF783FE20680169C943490635
:100F300009D4C168C943490605D46FF04001016175
:100F4000204600F02DF820680169C94389060BD4BA
:100F5000C168C943890607D46FF0200101612046AA
:100F6000BDE87040FFF764BE70BD70477047000079
:100F700010B509490068096888420CD1074C2088DF
:100F8000401C80B22080642805D9FFF7FFF8FFF7E6
:100F900005F90020208010BD140000200000002072
:100FA0007047704770B5026804461068D16853698D
:100FB00010F00F0F51D003F0010501F49076354386
:100FC0005DD0C20705D0CA0503D5E26B42F001022D
:100FD000E263420705D5DA0703D0E26B42F0020272
:100FE000E263820705D5DA0703D0E26B42F0040220
:100FF000E263020705D5DA0703D0E26B42F008028C
:10100000E263E26B002A34D0800604D5880602D55C
:10101000204600F02EFB20684069E16BC0F3801091
:1010200001F008010143204624D000F014FB2068A1
:10103000416949061AD5416921F040014161606B5F
:10104000A0B11B494163606BFFF7DEF8002810D0A8
:10105000606B416BBDE87040084783060FD58B0677
:101060000DD52046BDE8704000F003BB2046FFF7D9
:1010700098FF70BDFFF795FF0020E06370BD030689
:1010800006D50B0604D52046BDE8704000F0F4BB41
:101090004006F3D54806F1D5D168204621F040013D
:1010A000D160202184F8391000F0C0F870BD000034
:1010B0004716000870B5040004D094F839000025E4
:1010C00010B106E0012070BD84F83850204600F0D1
:1010D00023F8242084F839002068C16821F40051E5
:1010E000C160204600F010FB2068016921F49041A6
:1010F00001612068416921F02A0141612068C168CD
:1011000041F40051C160E563202084F8390084F87F
:101110003A00002070BD000010B50068114986B08B
:1011200088421DD11048816941F480418161806904
:101130000E4C00F4804004904FF4007000900220A8
:1011400001900320039069462046FFF711F9002122
:101150002015CDE90001029169462046FFF708F904
:1011600006B010BD003801400010024000080140E8
:1011700070472DE9F843044690F839001F4616469B
:101180000D46202850D1A5B19EB194F83800012811
:101190004AD0012084F838004FF00008C4F83C80A1
:1011A000212084F83900FFF7E1F9A6848146E6841E
:1011B00026E00120BDE8F883E08C401EE084A068B2
:1011C0004B46B0F5805F4FF000024FF080012046A3
:1011D000009703D000F081FBE8B90DE000F07DFB43
:1011E000C8B928882168C0F308004860206908B1A0
:1011F0006D1C05E0AD1C03E0216815F8010B48608B
:10120000E08C0028D8D14B46002240212046009790
:1012100000F063FB08B10320CCE7202084F83900FC
:1012200084F838800020C5E70220C3E77047FEE756
:101230002DE9F04F334885B0816941F0100181619B
:10124000816901F010010491816941F020018161FF
:10125000816901F020010491816941F004018161FB
:10126000816901F004010491816941F00801816103
:101270008069DFF8949000F008004FF40054049067
:10128000002221464846FFF76BF9DFF880B00022C4
:1012900060215846FFF764F9DFF874A040F2022895
:1012A000002241465046FFF75BF9009401240225D5
:1012B0006946484603950194FFF75AF86020CDE946
:1012C0000004694603955846FFF752F84FF404703E
:1012D000104E00278DE8C10069464846FFF748F8E0
:1012E000CDE90084694650460395FFF741F8200296
:1012F0008DE8C10069465846FFF73AF805B0BDE8E9
:10130000F08F000000100240001001400008014072
:10131000000C01400000111010B5184886B01649A5
:1013200001602F210024C0E9011440F2E731C0E937
:1013300003148461FFF7A5FC18B1402110A000F050
:1013400006FB4FF48050009069460C48FFF7E0FC24
:1013500018B146210AA000F0FAFA049404A907483B
:101360000594FFF766FC002803D04D2104A000F08F
:10137000EEFA06B010BD0000000800401400002086
:101380002E2E2F5372632F74696D2E6300000000A0
:1013900010B5184886B0164901602F210024C0E915
:1013A000011440F2E731C0E903148461FFF769FCDE
:1013B00018B15F2110A000F0CAFA4FF480500090DD
:1013C00069460C48FFF7A4FC18B165210AA000F09B
:1013D000BEFA049404A907480594FFF72AFC0028E4
:1013E00003D06C2104A000F0B2FA06B010BD0000DA
:1013F000000C0040540000202E2E2F5372632F74D7
:10140000696D2E63000000000D4810B50B490160A6
:101410004FF4E1314160002181600C22C160C0E9DC
:1014200004128161C161FFF745FE002805D0BDE8C7
:101430001040422103A000F08ABA10BD00380140DC
:10144000940000202E2E2F5372632F7573617274D7
:101450002E630000FEE770470907090E002806DA30
:1014600000F00F0000F1E02080F8141D704700F13B
:10147000E02080F8001470477047704710B5FFF700
:101480007BF8BDE81040FFF7CEBB30B58FB001212F
:101490000804CDE900100024029402250491CDE94E
:1014A0000750000109906846FFF71AFA00B1FEE7FD
:1014B0000F20CDE90A054FF48060CDE90C400121F1
:1014C0000AA80E94FFF706F900B1FEE7FFF7ACF9A2
:1014D0004FF47A71B0FBF1F0FFF791FB0420FFF7B6
:1014E00081FB00221146501EFFF7C2F80FB030BD3D
:1014F0000D48016841F00101016041680B4A11404B
:10150000416001680A4A11400160016821F48021AC
:101510000160416821F4FE0141604FF41F018160C8
:101520000449C00308607047001002400000FFF843
:10153000FFFFF6FE08ED00E00148FFF763BC000086
:10154000140000200148FFF75DBC0000540000209B
:10155000F0B502681C4B1D4D1D4E1E4F1E4C4FF02A
:10156000804C984209D0A04207D0604505D0A842DF
:1015700003D0B04201D0B84204D122F0700E4A68C4
:1015800042EA0E02984209D0A04207D0604505D039
:10159000A84203D0B04201D0B84203D122F4407532
:1015A000CA682A4322F080054A692A4302608A6891
:1015B000C2620A688262984201D0A04201D10969E0
:1015C000016301214161F0BD002C01400004004095
:1015D00000080040000C00400034014010B5846851
:1015E00042EA032224F47F440A432243826010BD6E
:1015F000826822F070020A4342F00701816070475E
:1016000010B5036A046A24F001040462846924F0BA
:10161000F00444EA021423F00A020A4384610262DD
:1016200010BD10B5036A23F0100303628369046AD6
:1016300023F4704343EA023224F0A00343EA011189
:101640008261016210BD10B5406A0021C185C1846C
:10165000FFF7A7FC10BD0168CA6822F49072CA6047
:1016600001684A6922F001024A61202180F83A109B
:10167000704710B590F83A10222901D0022010BD11
:101680008168B1F5805F11D00169002901681FD020
:10169000496801F07F03816A4A1C82620B70C18D28
:1016A000491E0904090CC18518D02BE00269816A22
:1016B000002A0268526805D0D2B20A80816A491CA9
:1016C0008162ECE7C2F308020A80816A891CF7E7AD
:1016D0004A68816A4B1C83620A70E0E70168CA6845
:1016E00022F02002CA600168CA6822F48072CA60CF
:1016F00001684A6922F001024A61202180F83A100B
:10170000FFF736FD002010BD2DE9F04104460068CA
:101710000169E26821F44051114301612169A06827
:101720000843616908432168CA6841F20C639A431F
:101730000243CA6020684169A26921F440711143E3
:1017400041614C4920686425322688423CD1FFF72C
:1017500081F800EBC00101EB001061688900B0FB6B
:10176000F1F7FFF777F800EBC00101EB00106168BB
:10177000B0468900B0FBF1F0B0FBF5F06FF0180156
:10178000484307EB800106EB0110B0FBF5F000F0D9
:10179000F006FFF75FF800EBC00101EB0010616895
:1017A0008900B0FBF1F0B0FBF5F006EB0016FFF797
:1017B00051F800EBC00101EB001061688900B0FB3B
:1017C000F1F7FFF747F83BE0FFF734F800EBC00113
:1017D00001EB001061688900B0FBF1F7FFF72AF810
:1017E00000EBC00101EB00106168B0468900B0FB5E
:1017F000F1F0B0FBF5F06FF01801484307EB800102
:1018000006EB0110B0FBF5F000F0F006FFF712F860
:1018100000EBC00101EB001061688900B0FBF1F042
:10182000B0FBF5F006EB0016FFF704F800EBC00183
:1018300001EB001061688900B0FBF1F7FEF7FAFFD9
:1018400000EBC00101EB001061688900B0FBF1F012
:10185000B0FBF5F06FF01801484307EB800108EB8F
:101860000110B0FBF5F0216800F00F0030448860F3
:10187000BDE8F0810038014090F83910212901D0ED
:10188000022070478168B1F5805F016A0BD04A1C65
:101890000262026809785160C18C491E0904090C72
:1018A000C1840ED017E009880268C1F308015160B5
:1018B00001690029016A02D0491C0162ECE7891C18
:1018C000FBE70168CA6822F08002CA600068C1684C
:1018D00041F04001C160002070472DE9F041984679
:1018E00017460E460446069D1DE0681C1BD02DB110
:1018F000FEF73CFEA0EB0800A84214D92068C1689E
:1019000021F4D071C1602068416921F00101416179
:10191000202084F8390084F83A00002084F8380048
:101920000320BDE8F0812068006836EA000004D09A
:101930000020B842D9D00020F3E70120F9E70000E9
:101940000148FFF72FBB000094000020FEE7FEE7F0
:1019500002E008C8121F08C1002AFAD17047704778
:10196000002001E001C1121F002AFBD170470000D6
:10197000FEF70AFEFFF789FDFFF75AFCFFF744FD6B
:10198000FFF7CAFCFFF704FD002211462520FEF7F1
:101990006FFE2520FEF760FE002211460A20FEF7AA
:1019A00067FE0A20FEF758FE002211461720FEF7B8
:1019B0005FFE1720FEF750FE002211461E20FEF7A4
:1019C00057FE1E20FEF748FE002211463220FEF789
:1019D0004FFE3220FEF740FE0648FFF78DF94FF626
:1019E000FF7422460A210448FEF7E0FB6420FEF75C
:1019F000A3FCF6E714000020020000200000000015
:101A000000000000010203040607080900000000AE
:101A100001020304341A0008000000201400000032
:101A200050190008481A000814000020C4040000DF
:101A3000601900080000AABBABCCDDEEFFCDEFBF04
:081A40000000000000A24A04AE
:0400000508000131BD
:00000001FF
